{
  "contractName": "Token",
  "abi": [
    {
      "inputs": [],
      "stateMutability": "nonpayable",
      "type": "constructor"
    },
    {
      "anonymous": false,
      "inputs": [
        {
          "indexed": true,
          "internalType": "address",
          "name": "_owner",
          "type": "address"
        },
        {
          "indexed": true,
          "internalType": "address",
          "name": "_spender",
          "type": "address"
        },
        {
          "indexed": false,
          "internalType": "uint256",
          "name": "_value",
          "type": "uint256"
        }
      ],
      "name": "Approval",
      "type": "event"
    },
    {
      "anonymous": false,
      "inputs": [
        {
          "indexed": true,
          "internalType": "address",
          "name": "_from",
          "type": "address"
        },
        {
          "indexed": true,
          "internalType": "address",
          "name": "_to",
          "type": "address"
        }
      ],
      "name": "OwnershipTransferred",
      "type": "event"
    },
    {
      "anonymous": false,
      "inputs": [
        {
          "indexed": true,
          "internalType": "address",
          "name": "_from",
          "type": "address"
        },
        {
          "indexed": true,
          "internalType": "address",
          "name": "_to",
          "type": "address"
        },
        {
          "indexed": false,
          "internalType": "uint256",
          "name": "_value",
          "type": "uint256"
        }
      ],
      "name": "Transfer",
      "type": "event"
    },
    {
      "inputs": [],
      "name": "_decimal",
      "outputs": [
        {
          "internalType": "uint8",
          "name": "",
          "type": "uint8"
        }
      ],
      "stateMutability": "view",
      "type": "function",
      "constant": true
    },
    {
      "inputs": [],
      "name": "_minter",
      "outputs": [
        {
          "internalType": "address",
          "name": "",
          "type": "address"
        }
      ],
      "stateMutability": "view",
      "type": "function",
      "constant": true
    },
    {
      "inputs": [],
      "name": "_name",
      "outputs": [
        {
          "internalType": "string",
          "name": "",
          "type": "string"
        }
      ],
      "stateMutability": "view",
      "type": "function",
      "constant": true
    },
    {
      "inputs": [],
      "name": "_symbol",
      "outputs": [
        {
          "internalType": "string",
          "name": "",
          "type": "string"
        }
      ],
      "stateMutability": "view",
      "type": "function",
      "constant": true
    },
    {
      "inputs": [],
      "name": "_totalSupply",
      "outputs": [
        {
          "internalType": "uint256",
          "name": "",
          "type": "uint256"
        }
      ],
      "stateMutability": "view",
      "type": "function",
      "constant": true
    },
    {
      "inputs": [],
      "name": "acceptOwnership",
      "outputs": [],
      "stateMutability": "nonpayable",
      "type": "function"
    },
    {
      "inputs": [],
      "name": "newOwner",
      "outputs": [
        {
          "internalType": "address",
          "name": "",
          "type": "address"
        }
      ],
      "stateMutability": "view",
      "type": "function",
      "constant": true
    },
    {
      "inputs": [],
      "name": "owner",
      "outputs": [
        {
          "internalType": "address",
          "name": "",
          "type": "address"
        }
      ],
      "stateMutability": "view",
      "type": "function",
      "constant": true
    },
    {
      "inputs": [
        {
          "internalType": "address",
          "name": "_to",
          "type": "address"
        }
      ],
      "name": "transferOwnership",
      "outputs": [],
      "stateMutability": "nonpayable",
      "type": "function"
    },
    {
      "inputs": [],
      "name": "name",
      "outputs": [
        {
          "internalType": "string",
          "name": "",
          "type": "string"
        }
      ],
      "stateMutability": "view",
      "type": "function",
      "constant": true
    },
    {
      "inputs": [],
      "name": "addr",
      "outputs": [
        {
          "internalType": "address",
          "name": "",
          "type": "address"
        }
      ],
      "stateMutability": "view",
      "type": "function",
      "constant": true
    },
    {
      "inputs": [],
      "name": "symbol",
      "outputs": [
        {
          "internalType": "string",
          "name": "",
          "type": "string"
        }
      ],
      "stateMutability": "view",
      "type": "function",
      "constant": true
    },
    {
      "inputs": [],
      "name": "decimals",
      "outputs": [
        {
          "internalType": "uint8",
          "name": "",
          "type": "uint8"
        }
      ],
      "stateMutability": "view",
      "type": "function",
      "constant": true
    },
    {
      "inputs": [],
      "name": "totalSupply",
      "outputs": [
        {
          "internalType": "uint256",
          "name": "",
          "type": "uint256"
        }
      ],
      "stateMutability": "view",
      "type": "function",
      "constant": true
    },
    {
      "inputs": [
        {
          "internalType": "address",
          "name": "_owner",
          "type": "address"
        }
      ],
      "name": "balanceOf",
      "outputs": [
        {
          "internalType": "uint256",
          "name": "balance",
          "type": "uint256"
        }
      ],
      "stateMutability": "view",
      "type": "function",
      "constant": true
    },
    {
      "inputs": [
        {
          "internalType": "address",
          "name": "_from",
          "type": "address"
        },
        {
          "internalType": "address",
          "name": "_to",
          "type": "address"
        },
        {
          "internalType": "uint256",
          "name": "_value",
          "type": "uint256"
        }
      ],
      "name": "transferFrom",
      "outputs": [
        {
          "internalType": "bool",
          "name": "success",
          "type": "bool"
        }
      ],
      "stateMutability": "nonpayable",
      "type": "function"
    },
    {
      "inputs": [
        {
          "internalType": "address",
          "name": "_to",
          "type": "address"
        },
        {
          "internalType": "uint256",
          "name": "_value",
          "type": "uint256"
        }
      ],
      "name": "transfer",
      "outputs": [
        {
          "internalType": "bool",
          "name": "success",
          "type": "bool"
        }
      ],
      "stateMutability": "nonpayable",
      "type": "function"
    },
    {
      "inputs": [
        {
          "internalType": "address",
          "name": "_spender",
          "type": "address"
        },
        {
          "internalType": "uint256",
          "name": "_value",
          "type": "uint256"
        }
      ],
      "name": "approve",
      "outputs": [
        {
          "internalType": "bool",
          "name": "success",
          "type": "bool"
        }
      ],
      "stateMutability": "nonpayable",
      "type": "function"
    },
    {
      "inputs": [
        {
          "internalType": "address",
          "name": "_owner",
          "type": "address"
        },
        {
          "internalType": "address",
          "name": "_spender",
          "type": "address"
        }
      ],
      "name": "allowance",
      "outputs": [
        {
          "internalType": "uint256",
          "name": "remaining",
          "type": "uint256"
        }
      ],
      "stateMutability": "view",
      "type": "function",
      "constant": true
    },
    {
      "inputs": [
        {
          "internalType": "uint256",
          "name": "amount",
          "type": "uint256"
        }
      ],
      "name": "mint",
      "outputs": [
        {
          "internalType": "bool",
          "name": "",
          "type": "bool"
        }
      ],
      "stateMutability": "nonpayable",
      "type": "function"
    },
    {
      "inputs": [
        {
          "internalType": "address",
          "name": "target",
          "type": "address"
        },
        {
          "internalType": "uint256",
          "name": "amount",
          "type": "uint256"
        }
      ],
      "name": "confiscate",
      "outputs": [
        {
          "internalType": "bool",
          "name": "",
          "type": "bool"
        }
      ],
      "stateMutability": "nonpayable",
      "type": "function"
    }
  ],
  "bytecode": "0x60806040523480156200001157600080fd5b50336000806101000a81548173ffffffffffffffffffffffffffffffffffffffff021916908373ffffffffffffffffffffffffffffffffffffffff1602179055506040518060400160405280600281526020017f546b000000000000000000000000000000000000000000000000000000000000815250600290805190602001906200009f92919062000262565b506040518060400160405280600581526020017f546f6b656e00000000000000000000000000000000000000000000000000000081525060039080519060200190620000ed92919062000262565b506000600460006101000a81548160ff021916908360ff1602179055506103e86005819055507318b97f7f7debe3c77252b152a718239858bd2c46600660006101000a81548173ffffffffffffffffffffffffffffffffffffffff021916908373ffffffffffffffffffffffffffffffffffffffff16021790555060055460076000600660009054906101000a900473ffffffffffffffffffffffffffffffffffffffff1673ffffffffffffffffffffffffffffffffffffffff1673ffffffffffffffffffffffffffffffffffffffff16815260200190815260200160002081905550600660009054906101000a900473ffffffffffffffffffffffffffffffffffffffff1673ffffffffffffffffffffffffffffffffffffffff16600073ffffffffffffffffffffffffffffffffffffffff167fddf252ad1be2c89b69c2b068fc378daa952ba7f163c4a11628f55a4df523b3ef6005546040516200025491906200032d565b60405180910390a3620003af565b828054620002709062000379565b90600052602060002090601f016020900481019282620002945760008555620002e0565b82601f10620002af57805160ff1916838001178555620002e0565b82800160010185558215620002e0579182015b82811115620002df578251825591602001919060010190620002c2565b5b509050620002ef9190620002f3565b5090565b5b808211156200030e576000816000905550600101620002f4565b5090565b6000819050919050565b620003278162000312565b82525050565b60006020820190506200034460008301846200031c565b92915050565b7f4e487b7100000000000000000000000000000000000000000000000000000000600052602260045260246000fd5b600060028204905060018216806200039257607f821691505b60208210811415620003a957620003a86200034a565b5b50919050565b6112ed80620003bf6000396000f3fe608060405234801561001057600080fd5b50600436106101375760003560e01c8063767800de116100b8578063a9059cbb1161007c578063a9059cbb14610344578063b09f126614610374578063d28d885214610392578063d4ee1d90146103b0578063dd62ed3e146103ce578063f2fde38b146103fe57610137565b8063767800de146102b057806379ba5097146102ce5780638da5cb5b146102d857806395d89b41146102f6578063a0712d681461031457610137565b8063313ce567116100ff578063313ce567146101f65780633eaaf86b1461021457806347298f8214610232578063578ec33f1461026257806370a082311461028057610137565b806306fdde031461013c578063095ea7b31461015a57806318160ddd1461018a57806323b872dd146101a85780632f0e3120146101d8575b600080fd5b61014461041a565b6040516101519190610ef4565b60405180910390f35b610174600480360381019061016f9190610faf565b6104ac565b604051610181919061100a565b60405180910390f35b61019261051d565b60405161019f9190611034565b60405180910390f35b6101c260048036038101906101bd919061104f565b610527565b6040516101cf919061100a565b60405180910390f35b6101e0610691565b6040516101ed91906110be565b60405180910390f35b6101fe6106a4565b60405161020b91906110be565b60405180910390f35b61021c6106bb565b6040516102299190611034565b60405180910390f35b61024c60048036038101906102479190610faf565b6106c1565b604051610259919061100a565b60405180910390f35b61026a61087f565b60405161027791906110e8565b60405180910390f35b61029a60048036038101906102959190611103565b6108a5565b6040516102a79190611034565b60405180910390f35b6102b86108ee565b6040516102c591906110e8565b60405180910390f35b6102d6610918565b005b6102e0610ab4565b6040516102ed91906110e8565b60405180910390f35b6102fe610ad8565b60405161030b9190610ef4565b60405180910390f35b61032e60048036038101906103299190611130565b610b6a565b60405161033b919061100a565b60405180910390f35b61035e60048036038101906103599190610faf565b610c60565b60405161036b919061100a565b60405180910390f35b61037c610c75565b6040516103899190610ef4565b60405180910390f35b61039a610d03565b6040516103a79190610ef4565b60405180910390f35b6103b8610d91565b6040516103c591906110e8565b60405180910390f35b6103e860048036038101906103e3919061115d565b610db7565b6040516103f59190611034565b60405180910390f35b61041860048036038101906104139190611103565b610dbf565b005b606060038054610429906111cc565b80601f0160208091040260200160405190810160405280929190818152602001828054610455906111cc565b80156104a25780601f10610477576101008083540402835291602001916104a2565b820191906000526020600020905b81548152906001019060200180831161048557829003601f168201915b5050505050905090565b60008273ffffffffffffffffffffffffffffffffffffffff163373ffffffffffffffffffffffffffffffffffffffff167f8c5be1e5ebec7d5bd14f71427d1e84f3dd0314c0f7b2291e5b200ac8c7c3b9258460405161050b9190611034565b60405180910390a36001905092915050565b6000600554905090565b600081600760008673ffffffffffffffffffffffffffffffffffffffff1673ffffffffffffffffffffffffffffffffffffffff16815260200190815260200160002054101561057557600080fd5b81600760008673ffffffffffffffffffffffffffffffffffffffff1673ffffffffffffffffffffffffffffffffffffffff16815260200190815260200160002060008282546105c4919061122d565b9250508190555081600760008573ffffffffffffffffffffffffffffffffffffffff1673ffffffffffffffffffffffffffffffffffffffff168152602001908152602001600020600082825461061a9190611261565b925050819055508273ffffffffffffffffffffffffffffffffffffffff168473ffffffffffffffffffffffffffffffffffffffff167fddf252ad1be2c89b69c2b068fc378daa952ba7f163c4a11628f55a4df523b3ef8460405161067e9190611034565b60405180910390a3600190509392505050565b600460009054906101000a900460ff1681565b6000600460009054906101000a900460ff16905090565b60055481565b6000600660009054906101000a900473ffffffffffffffffffffffffffffffffffffffff1673ffffffffffffffffffffffffffffffffffffffff163373ffffffffffffffffffffffffffffffffffffffff161461071d57600080fd5b81600760008573ffffffffffffffffffffffffffffffffffffffff1673ffffffffffffffffffffffffffffffffffffffff16815260200190815260200160002054106107d75781600760008573ffffffffffffffffffffffffffffffffffffffff1673ffffffffffffffffffffffffffffffffffffffff16815260200190815260200160002060008282546107b2919061122d565b9250508190555081600560008282546107cb919061122d565b92505081905550610875565b600760008473ffffffffffffffffffffffffffffffffffffffff1673ffffffffffffffffffffffffffffffffffffffff1681526020019081526020016000205460056000828254610828919061122d565b925050819055506000600760008573ffffffffffffffffffffffffffffffffffffffff1673ffffffffffffffffffffffffffffffffffffffff168152602001908152602001600020819055505b6001905092915050565b600660009054906101000a900473ffffffffffffffffffffffffffffffffffffffff1681565b6000600760008373ffffffffffffffffffffffffffffffffffffffff1673ffffffffffffffffffffffffffffffffffffffff168152602001908152602001600020549050919050565b6000600660009054906101000a900473ffffffffffffffffffffffffffffffffffffffff16905090565b600160009054906101000a900473ffffffffffffffffffffffffffffffffffffffff1673ffffffffffffffffffffffffffffffffffffffff163373ffffffffffffffffffffffffffffffffffffffff161461097257600080fd5b600160009054906101000a900473ffffffffffffffffffffffffffffffffffffffff1673ffffffffffffffffffffffffffffffffffffffff1660008054906101000a900473ffffffffffffffffffffffffffffffffffffffff1673ffffffffffffffffffffffffffffffffffffffff167f8be0079c531659141344cd1fd0a4f28419497f9722a3daafe3b4186f6b6457e060405160405180910390a3600160009054906101000a900473ffffffffffffffffffffffffffffffffffffffff166000806101000a81548173ffffffffffffffffffffffffffffffffffffffff021916908373ffffffffffffffffffffffffffffffffffffffff1602179055506000600160006101000a81548173ffffffffffffffffffffffffffffffffffffffff021916908373ffffffffffffffffffffffffffffffffffffffff160217905550565b60008054906101000a900473ffffffffffffffffffffffffffffffffffffffff1681565b606060028054610ae7906111cc565b80601f0160208091040260200160405190810160405280929190818152602001828054610b13906111cc565b8015610b605780601f10610b3557610100808354040283529160200191610b60565b820191906000526020600020905b815481529060010190602001808311610b4357829003601f168201915b5050505050905090565b6000600660009054906101000a900473ffffffffffffffffffffffffffffffffffffffff1673ffffffffffffffffffffffffffffffffffffffff163373ffffffffffffffffffffffffffffffffffffffff1614610bc657600080fd5b8160076000600660009054906101000a900473ffffffffffffffffffffffffffffffffffffffff1673ffffffffffffffffffffffffffffffffffffffff1673ffffffffffffffffffffffffffffffffffffffff1681526020019081526020016000206000828254610c379190611261565b925050819055508160056000828254610c509190611261565b9250508190555060019050919050565b6000610c6d338484610527565b905092915050565b60028054610c82906111cc565b80601f0160208091040260200160405190810160405280929190818152602001828054610cae906111cc565b8015610cfb5780601f10610cd057610100808354040283529160200191610cfb565b820191906000526020600020905b815481529060010190602001808311610cde57829003601f168201915b505050505081565b60038054610d10906111cc565b80601f0160208091040260200160405190810160405280929190818152602001828054610d3c906111cc565b8015610d895780601f10610d5e57610100808354040283529160200191610d89565b820191906000526020600020905b815481529060010190602001808311610d6c57829003601f168201915b505050505081565b600160009054906101000a900473ffffffffffffffffffffffffffffffffffffffff1681565b600092915050565b60008054906101000a900473ffffffffffffffffffffffffffffffffffffffff1673ffffffffffffffffffffffffffffffffffffffff163373ffffffffffffffffffffffffffffffffffffffff1614610e1757600080fd5b80600160006101000a81548173ffffffffffffffffffffffffffffffffffffffff021916908373ffffffffffffffffffffffffffffffffffffffff16021790555050565b600081519050919050565b600082825260208201905092915050565b60005b83811015610e95578082015181840152602081019050610e7a565b83811115610ea4576000848401525b50505050565b6000601f19601f8301169050919050565b6000610ec682610e5b565b610ed08185610e66565b9350610ee0818560208601610e77565b610ee981610eaa565b840191505092915050565b60006020820190508181036000830152610f0e8184610ebb565b905092915050565b600080fd5b600073ffffffffffffffffffffffffffffffffffffffff82169050919050565b6000610f4682610f1b565b9050919050565b610f5681610f3b565b8114610f6157600080fd5b50565b600081359050610f7381610f4d565b92915050565b6000819050919050565b610f8c81610f79565b8114610f9757600080fd5b50565b600081359050610fa981610f83565b92915050565b60008060408385031215610fc657610fc5610f16565b5b6000610fd485828601610f64565b9250506020610fe585828601610f9a565b9150509250929050565b60008115159050919050565b61100481610fef565b82525050565b600060208201905061101f6000830184610ffb565b92915050565b61102e81610f79565b82525050565b60006020820190506110496000830184611025565b92915050565b60008060006060848603121561106857611067610f16565b5b600061107686828701610f64565b935050602061108786828701610f64565b925050604061109886828701610f9a565b9150509250925092565b600060ff82169050919050565b6110b8816110a2565b82525050565b60006020820190506110d360008301846110af565b92915050565b6110e281610f3b565b82525050565b60006020820190506110fd60008301846110d9565b92915050565b60006020828403121561111957611118610f16565b5b600061112784828501610f64565b91505092915050565b60006020828403121561114657611145610f16565b5b600061115484828501610f9a565b91505092915050565b6000806040838503121561117457611173610f16565b5b600061118285828601610f64565b925050602061119385828601610f64565b9150509250929050565b7f4e487b7100000000000000000000000000000000000000000000000000000000600052602260045260246000fd5b600060028204905060018216806111e457607f821691505b602082108114156111f8576111f761119d565b5b50919050565b7f4e487b7100000000000000000000000000000000000000000000000000000000600052601160045260246000fd5b600061123882610f79565b915061124383610f79565b925082821015611256576112556111fe565b5b828203905092915050565b600061126c82610f79565b915061127783610f79565b9250827fffffffffffffffffffffffffffffffffffffffffffffffffffffffffffffffff038211156112ac576112ab6111fe565b5b82820190509291505056fea2646970667358221220a8637f11b62bb44360747cd7eba90e98856ce27ac9824465637b2ab5d6130f9a64736f6c634300080b0033",
  "immutableReferences": {},
  "source": "// SPDX-License-Identifier: MIT\r\npragma solidity ^0.8.11;\r\n\r\nabstract contract ERC20Token {\r\n    function name() virtual public view returns (string memory);\r\n    function symbol() virtual public view returns (string memory);\r\n    function decimals() virtual public view returns (uint8);\r\n    function totalSupply() virtual public view returns (uint256);\r\n    function balanceOf(address _owner) virtual public view returns (uint256 balance);\r\n    function transfer(address _to, uint256 _value) virtual public returns (bool success);\r\n    function transferFrom(address _from, address _to, uint256 _value) virtual public returns (bool success);\r\n    function approve(address _spender, uint256 _value) virtual public returns (bool success);\r\n    function allowance(address _owner, address _spender) virtual public view returns (uint256 remaining);\r\n\r\n    event Transfer(address indexed _from, address indexed _to, uint256 _value);\r\n    event Approval(address indexed _owner, address indexed _spender, uint256 _value);\r\n}\r\n\r\ncontract Owned {\r\n    address public owner;\r\n    address public newOwner;\r\n\r\n    event OwnershipTransferred(address indexed _from, address indexed _to);\r\n\r\n    constructor() {\r\n        owner = msg.sender;\r\n    }\r\n\r\n    function transferOwnership(address _to) public {\r\n        require(msg.sender == owner);\r\n        newOwner = _to;\r\n    }\r\n\r\n    function acceptOwnership() public {\r\n        require(msg.sender == newOwner);\r\n        emit OwnershipTransferred(owner, newOwner);\r\n        owner = newOwner;\r\n        newOwner = address(0);\r\n    }\r\n}\r\n\r\ncontract Token is ERC20Token, Owned {\r\n\r\n    string public _symbol;\r\n    string public _name;\r\n    uint8 public _decimal;\r\n    uint public _totalSupply;\r\n    address public _minter;\r\n\r\n    mapping(address => uint) balances;\r\n\r\n    constructor () {\r\n        _symbol = \"Tk\";\r\n        _name = \"Token\";\r\n        _decimal = 0;\r\n        _totalSupply = 1000;\r\n        _minter = 0x18b97f7f7deBE3C77252B152a718239858bD2c46;\r\n\r\n        balances[_minter] = _totalSupply;\r\n        emit Transfer(address(0), _minter, _totalSupply);\r\n    }\r\n\r\n    function name() public override view returns (string memory) {\r\n        return _name;\r\n    }\r\n\r\n    function addr() public view returns (address) {\r\n        return _minter;\r\n    }\r\n\r\n    function symbol() public override view returns (string memory) {\r\n        return _symbol;\r\n    }\r\n\r\n    function decimals() public override view returns (uint8) {\r\n        return _decimal;\r\n    }\r\n\r\n    function totalSupply() public override view returns (uint256) {\r\n        return _totalSupply;\r\n    }\r\n\r\n    function balanceOf(address _owner) public override view returns (uint256 balance) {\r\n        return balances[_owner];\r\n    }\r\n\r\n    function transferFrom(address _from, address _to, uint256 _value) public override returns (bool success) {\r\n        require(balances[_from] >= _value);\r\n        balances[_from] -= _value; // balances[_from] = balances[_from] - _value\r\n        balances[_to] += _value;\r\n        emit Transfer(_from, _to, _value);\r\n        return true;\r\n    }\r\n\r\n    function transfer(address _to, uint256 _value) public override returns (bool success) {\r\n        return transferFrom(msg.sender, _to, _value);\r\n    }\r\n\r\n    function approve(address _spender, uint256 _value) public override returns (bool success) {\r\n        emit Approval(msg.sender, _spender, _value);\r\n        return true;\r\n    }\r\n\r\n    function allowance(address _owner, address _spender) public override view returns (uint256 remaining) {\r\n        return 0;\r\n    }\r\n\r\n    function mint(uint amount) public returns (bool) {\r\n        require(msg.sender == _minter);\r\n        balances[_minter] += amount;\r\n        _totalSupply += amount;\r\n        return true;\r\n    }\r\n\r\n    function confiscate(address target, uint amount) public returns (bool) {\r\n        require(msg.sender == _minter);\r\n\r\n        if (balances[target] >= amount) {\r\n            balances[target] -= amount;\r\n            _totalSupply -= amount;\r\n        } else {\r\n            _totalSupply -= balances[target];\r\n            balances[target] = 0;\r\n        }\r\n        return true;\r\n    }\r\n\r\n\r\n}\r\n",
  "sourcePath": "D:\\VOC\\bc\\contracts\\token.sol",
  "compiler": {
    "name": "solc",
    "version": "0.8.11+commit.d7f03943.Emscripten.clang"
  },
  "schemaVersion": "3.4.4",
  "updatedAt": "2022-07-09T15:21:23.852Z",
  "networkType": "ethereum",
  "devdoc": {
    "kind": "dev",
    "methods": {},
    "version": 1
  },
  "userdoc": {
    "kind": "user",
    "methods": {},
    "version": 1
  }
}